:100000000C945D000C9485000C9485000C94850084
:100010000C9485000C9485000C9485000C9485004C
:100020000C9485000C9485000C9485000C9485003C
:100030000C9485000C9485000C9485000C9485002C
:100040000C9445020C9485000C94B5020C948F021C
:100050000C9485000C9485000C9485000C9485000C
:100060000C9485000C9485000000000024002700FB
:100070002A0000000000250028002B0004040404CE
:100080000404040402020202020203030303030342
:10009000010204081020408001020408102001021F
:1000A00004081020000000080002010000030407FB
:1000B0000000000000000000CC0311241FBECFEFA1
:1000C000D8E0DEBFCDBF11E0A0E0B1E0ECE0F8E0A9
:1000D00002C005900D92AE31B107D9F721E0AEE133
:1000E000B1E001C01D92A43CB207E1F710E0CDE5FC
:1000F000D0E004C02197FE010E94F903CC35D1075E
:10010000C9F70E94E7020C9404040C94000090E0EC
:10011000FC01EC55FF4F2491FC01E057FF4F349157
:10012000FC01E458FF4FE491EE2309F43CC0222384
:1001300039F1233091F038F42130A9F0223001F563
:1001400084B58F7D12C0273091F02830A1F0243083
:10015000B9F4809180008F7D03C0809180008F77FB
:10016000809380000DC084B58F7784BD09C08091D5
:10017000B0008F7703C08091B0008F7D8093B00076
:10018000F0E0EE0FFF1FEE58FF4FA591B4919FB71F
:10019000F894611104C08C913095382302C0EC9121
:1001A0003E2B3C939FBF08953FB7F8948091C001C8
:1001B0009091C101A091C201B091C30126B5A89B45
:1001C00005C02F3F19F00196A11DB11D3FBFBA2FE9
:1001D000A92F982F8827820F911DA11DB11DBC0149
:1001E000CD0142E0660F771F881F991F4A95D1F70E
:1001F00008958F929F92AF92BF92CF92DF92EF922B
:10020000FF926B017C010E94D4004B015C01C11480
:10021000D104E104F104F1F00E94D400DC01CB012F
:1002200088199909AA09BB09883E9340A105B1051F
:1002300070F321E0C21AD108E108F10888EE880EB7
:1002400083E0981EA11CB11CC114D104E104F10487
:1002500019F7DDCFFF90EF90DF90CF90BF90AF9078
:100260009F908F900895CF92DF92EF92FF920F931D
:100270001F93CF93DF936C017A018B01C0E0D0E034
:10028000CE15DF0581F0D8016D918D01D601ED917C
:10029000FC910190F081E02DC6010995892B11F0A8
:1002A0002196EECF7E01C701DF91CF911F910F9173
:1002B000FF90EF90DF90CF900895089580E090E058
:1002C0000895FC01538D448D252F30E0842F90E05C
:1002D000821B930B541710F0CF9608950197089541
:1002E000FC01918D828D981761F0828DDF01A80F3E
:1002F000B11D5D968C91928D9F5F9F73928F90E060
:1003000008958FEF9FEF0895FC01918D828D9817CE
:1003100031F0828DE80FF11D858D90E008958FEF0B
:100320009FEF0895FC01918D228D892F90E0805CD4
:100330009F4F821B91098F73992708958EE191E059
:100340000E94920121E0892B09F420E0822F089578
:10035000FC01848DDF01A80FB11DA35ABF4F2C9162
:10036000848D90E001968F739927848FA689B78931
:100370002C93A089B1898C91837080648C93938D28
:10038000848D981306C00288F389E02D80818F7DCB
:1003900080830895EF92FF920F931F93CF93DF9383
:1003A000EC0181E0888F9B8D8C8D981305C0E889C6
:1003B000F989808185FD26C0F62E0B8D10E00F5F38
:1003C0001F4F0F731127E02E8C8DE8120CC00FB653
:1003D00007FCFACFE889F989808185FFF5CFCE0146
:1003E0000E94A801F1CF8B8DFE01E80FF11DE35AA9
:1003F000FF4FF0829FB7F8940B8FEA89FB898081C9
:1004000080620AC09FB7F894EE89FF896083E8890B
:10041000F98980818370806480839FBF81E090E050
:10042000DF91CF911F910F91FF90EF900895CF939F
:10043000DF93EC01888D8823C9F0EA89FB898081EC
:1004400085FD05C0A889B9898C9186FD0FC00FB6BE
:1004500007FCF5CF808185FFF2CFA889B9898C91FF
:1004600085FFEDCFCE010E94A801E7CFDF91CF91AC
:10047000089580E090E0892B29F00E949E0181116F
:100480000C94000008950E94FF031F920F920FB674
:100490000F9211242F933F938F939F93AF93BF930A
:1004A0008091BC019091BD01A091BE01B091BF01AE
:1004B0003091BB0123E0230F2D3720F40196A11DBD
:1004C000B11D05C026E8230F0296A11DB11D209382
:1004D000BB018093BC019093BD01A093BE01B0937A
:1004E000BF018091C0019091C101A091C201B09162
:1004F000C3010196A11DB11D8093C0019093C1015C
:10050000A093C201B093C301BF91AF919F918F910E
:100510003F912F910F900FBE0F901F9018951F9233
:100520000F920FB60F9211242F933F934F935F9327
:100530006F937F938F939F93AF93BF93EF93FF93AB
:100540008EE191E00E94A801FF91EF91BF91AF91E0
:100550009F918F917F916F915F914F913F912F91DB
:100560000F900FBE0F901F9018951F920F920FB60D
:100570000F9211242F938F939F93EF93FF93E0910A
:100580002E01F0912F018081E0913401F09135012D
:1005900082FD12C09081809137018F5F8F7320910F
:1005A0003801821751F0E0913701F0E0E25EFE4F32
:1005B000958F8093370101C08081FF91EF919F91CA
:1005C0008F912F910F900FBE0F901F901895CF9382
:1005D000DF93CDB7DEB7A1970FB6F894DEBF0FBE9D
:1005E000CDBF789484B5826084BD84B5816084BDBC
:1005F00085B5826085BD85B5816085BD80916E00C1
:10060000816080936E0010928100809181008260F1
:10061000809381008091810081608093810080912E
:1006200080008160809380008091B100846080931D
:10063000B1008091B00081608093B00080917A0019
:10064000846080937A0080917A00826080937A003F
:1006500080917A00816080937A0080917A0080682E
:1006600080937A001092C100E0912E01F0912F0149
:1006700082E08083E0912A01F0912B011082E091C9
:100680002C01F0912D018FEC808310923601E091C6
:100690003201F091330186E08083E0913001F091E6
:1006A0003101808180618083E0913001F0913101DE
:1006B000808188608083E0913001F09131018081F8
:1006C00080688083E0913001F091310180818F7DDD
:1006D000808319A286E388A3BE01605E7F4FFB0181
:1006E00001900020E9F73197AF01461B570B8EE1CF
:1006F00091E00E9433010EE111E0A2E1B1E08D91A1
:100700009D919927FC01E057FF4F4491FC01E4586B
:10071000FF4F84918823A1F090E0880F991FFC017E
:10072000E859FF4F25913491FC01EE58FF4F859118
:1007300094918FB7F894F9019081942B90838FBF97
:100740000A171B07E1F660ED77E080E090E00E9479
:10075000F90082E1E82E81E0F82EF701D080F2E086
:10076000EF0EF11C61E08D2D0E94870068EE73E0B2
:1007700080E090E00E94F90060E08D2D0E948700EB
:1007800068EE73E080E090E00E94F9000E151F050E
:1007900021F70E943902DDCFEEE1F1E013821282EF
:1007A00088EE93E0A0E0B0E084839583A683B783CE
:1007B00084E091E09183808385EC90E09587848745
:1007C00084EC90E09787868780EC90E0918B808B1B
:1007D00081EC90E0938B828B82EC90E0958B848B04
:1007E00086EC90E0978B868B118E128E138E148E72
:1007F0000895EE0FFF1F0590F491E02D099481E01C
:0C08000090E0F8940C940404F894FFCFEE
:10080C0000000000CA01330161011702920170015E
:0E081C0084010200030004000500060007002E
:107E0000112484B714BE81FFF0D085E080938100F7
:107E100082E08093C00088E18093C10086E0809377
:107E2000C20080E18093C4008EE0C9D0259A86E02C
:107E300020E33CEF91E0309385002093840096BBD3
:107E4000B09BFECF1D9AA8958150A9F7CC24DD24C4
:107E500088248394B5E0AB2EA1E19A2EF3E0BF2EE7
:107E6000A2D0813461F49FD0082FAFD0023811F036
:107E7000013811F484E001C083E08DD089C08234E0
:107E800011F484E103C0853419F485E0A6D080C0E4
:107E9000853579F488D0E82EFF2485D0082F10E0AE
:107EA000102F00270E291F29000F111F8ED06801E7
:107EB0006FC0863521F484E090D080E0DECF843638
:107EC00009F040C070D06FD0082F6DD080E0C81688
:107ED00080E7D80618F4F601B7BEE895C0E0D1E017
:107EE00062D089930C17E1F7F0E0CF16F0E7DF06D8
:107EF00018F0F601B7BEE89568D007B600FCFDCFD4
:107F0000A601A0E0B1E02C9130E011968C91119780
:107F100090E0982F8827822B932B1296FA010C0160
:107F200087BEE89511244E5F5F4FF1E0A038BF0790
:107F300051F7F601A7BEE89507B600FCFDCF97BE46
:107F4000E89526C08437B1F42ED02DD0F82E2BD052
:107F50003CD0F601EF2C8F010F5F1F4F84911BD097
:107F6000EA94F801C1F70894C11CD11CFA94CF0C13
:107F7000D11C0EC0853739F428D08EE10CD085E9AC
:107F80000AD08FE07ACF813511F488E018D01DD067
:107F900080E101D065CF982F8091C00085FFFCCF94
:107FA0009093C60008958091C00087FFFCCF809118
:107FB000C00084FD01C0A8958091C6000895E0E648
:107FC000F0E098E1908380830895EDDF803219F02E
:107FD00088E0F5DFFFCF84E1DECF1F93182FE3DFCA
:107FE0001150E9F7F2DF1F91089580E0E8DFEE27F6
:047FF000FF270994CA
:027FFE00040479
:0400000300007E007B
:00000001FF
