:100000000C9462000C948A000C948A000C948A0070
:100010000C948A000C948A000C948A000C948A0038
:100020000C948A000C948A000C948A000C948A0028
:100030000C948A000C948A000C948A000C948A0018
:100040000C94FE020C948A000C946E030C944803EA
:100050000C948A000C948A000C948A000C948A00F8
:100060000C948A000C948A000000000024002700F1
:100070002A0000000000250028002B0000000000DE
:1000800023002600290004040404040404040202DA
:100090000202020203030303030301020408102007
:1000A0004080010204081020010204081020000012
:1000B0000008000201000003040700000000000027
:1000C00000003E0511241FBECFEFD8E0DEBFCDBF3C
:1000D00011E0A0E0B1E0E0EFFAE002C005900D927F
:1000E000A638B107D9F722E0A6E8B1E001C01D9219
:1000F000AE32B207E1F710E0C2E6D0E004C02197CB
:10010000FE010E946B05C136D107C9F70E94A0030A
:100110000C9476050C940000833081F028F4813033
:1001200099F08230A1F008958730A9F08830B9F0B5
:100130008430D1F4809180008F7D03C08091800055
:100140008F7780938000089584B58F7702C084B53F
:100150008F7D84BD08958091B0008F7703C080911A
:10016000B0008F7D8093B0000895CF93DF93282F48
:1001700030E0F901E255FF4F8491F901E656FF4F57
:10018000D491F901EA57FF4FC491CC2391F081112A
:100190000E948C00EC2FF0E0EE0FFF1FE458FF4FA1
:1001A000A591B491EC91ED2381E090E021F480E001
:1001B00002C080E090E0DF91CF9108951F93CF932C
:1001C000DF93282F30E0F901E255FF4F8491F901C8
:1001D000E656FF4FD491F901EA57FF4FC491CC2363
:1001E000C1F0162F81110E948C00EC2FF0E0EE0F71
:1001F000FF1FEE58FF4FA591B4919FB7F8941111CE
:1002000004C08C91D095D82302C0EC91DE2BDC93F6
:100210009FBFDF91CF911F9108953FB7F8948091D0
:100220008D0190918E01A0918F01B091900126B522
:10023000A89B05C02F3F19F00196A11DB11D3FBF1E
:10024000BA2FA92F982F8827820F911DA11DB11DAC
:10025000BC01CD0142E0660F771F881F991F4A95A8
:10026000D1F708958F929F92AF92BF92CF92DF9273
:10027000EF92FF926B017C010E940D014B015C012A
:10028000C114D104E104F104F1F00E940D01DC017C
:10029000CB0188199909AA09BB09883E9340A10599
:1002A000B10570F321E0C21AD108E108F10888EE27
:1002B000880E83E0981EA11CB11CC114D104E10476
:1002C000F10419F7DDCFFF90EF90DF90CF90BF9052
:1002D000AF909F908F900895CF92DF92EF92FF9210
:1002E0000F931F93CF93DF936C017A018B01C0E0D2
:1002F000D0E0CE15DF0581F0D8016D918D01D601DA
:10030000ED91FC910190F081E02DC6010995892BBA
:1003100011F02196EECF7E01C701DF91CF911F91A1
:100320000F91FF90EF90DF90CF900895089580E0B7
:1003300090E00895FC01538D448D252F30E0842FEB
:1003400090E0821B930B541710F0CF9608950197FD
:100350000895FC01918D828D981761F0828DDF01E7
:10036000A80FB11D5D968C91928D9F5F9F73928FA8
:1003700090E008958FEF9FEF0895FC01918D828D9D
:10038000981731F0828DE80FF11D858D90E008956A
:100390008FEF9FEF0895FC01918D228D892F90E0C2
:1003A000805C9F4F821B91098F739927089581E983
:1003B00091E00E94CB0121E0892B09F420E0822FFB
:1003C0000895FC01848DDF01A80FB11DA35ABF4F12
:1003D0002C91848D90E001968F739927848FA68944
:1003E000B7892C93A089B1898C91837080648C9398
:1003F000938D848D981306C00288F389E02D808147
:100400008F7D80830895EF92FF920F931F93CF9378
:10041000DF93EC0181E0888F9B8D8C8D981305C054
:10042000E889F989808185FD26C0F62E0B8D10E0C4
:100430000F5F1F4F0F731127E02E8C8DE8120CC039
:100440000FB607FCFACFE889F989808185FFF5CFDF
:10045000CE010E94E101F1CF8B8DFE01E80FF11D6D
:10046000E35AFF4FF0829FB7F8940B8FEA89FB891C
:10047000808180620AC09FB7F894EE89FF8960830B
:10048000E889F98980818370806480839FBF81E0DF
:1004900090E0DF91CF911F910F91FF90EF90089521
:1004A000CF93DF93EC01888D8823C9F0EA89FB891B
:1004B000808185FD05C0A889B9898C9186FD0FC012
:1004C0000FB607FCF5CF808185FFF2CFA889B989E7
:1004D0008C9185FFEDCFCE010E94E101E7CFDF9146
:1004E000CF91089580E090E0892B29F00E94D701F8
:1004F00081110C940000089560E085E00E94DE0008
:1005000060E086E00E94DE0064EF71E080E090E051
:100510000E94320161E08AE00E94DE0061E08CE02E
:100520000E94DE0064EF71E080E090E00E94320102
:1005300060E08AE00E94DE0060E08CE00C94DE0067
:10054000009769F0FC0101900020E9F73197AF01B5
:10055000481B590BBC0181E991E00C946C0180E0CF
:1005600090E00895CF93DF930E94A002EC0188E20F
:1005700091E00E94A0028C0F9D1FDF91CF91089502
:1005800081E10E94B500892BB1F582E00E94B5009F
:10059000892B09F0089581E10E94B500019721F4AB
:1005A0008BE291E00C94B20282E00E94B5000197C8
:1005B00041F488E391E00E94B20281E080938601D9
:1005C000089580E00E94B500892BD1F261E085E0BA
:1005D0000E94DE0060E086E00E94DE0061E087E0CD
:1005E0000E94DE0061E088E00E94DE0061E08DE0B4
:1005F0000E94DE00C5CF08950E9471051F920F92E0
:100600000FB60F9211242F933F938F939F93AF9325
:10061000BF938091890190918A01A0918B01B09143
:100620008C013091880123E0230F2D3720F40196AF
:10063000A11DB11D05C026E8230F0296A11DB11D05
:10064000209388018093890190938A01A0938B0164
:10065000B0938C0180918D0190918E01A0918F01BA
:10066000B09190010196A11DB11D80938D019093D1
:100670008E01A0938F01B0939001BF91AF919F9194
:100680008F913F912F910F900FBE0F901F90189553
:100690001F920F920FB60F9211242F933F934F93F7
:1006A0005F936F937F938F939F93AF93BF93EF93DA
:1006B000FF9381E991E00E94E101FF91EF91BF91E9
:1006C000AF919F918F917F916F915F914F913F91EA
:1006D0002F910F900FBE0F901F9018951F920F92A1
:1006E0000FB60F9211242F938F939F93EF93FF9345
:1006F000E091A101F091A2018081E091A701F09128
:10070000A80182FD12C090818091AA018F5F8F7332
:100710002091AB01821751F0E091AA01F0E0EF5671
:10072000FE4F958F8093AA0101C08081FF91EF91C8
:100730009F918F912F910F900FBE0F901F90189542
:10074000CF93DF93CDB7DEB7A1970FB6F894DEBF96
:100750000FBECDBF789484B5826084BD84B58160BE
:1007600084BD85B5826085BD85B5816085BD80917C
:100770006E00816080936E001092810080918100F4
:1007800082608093810080918100816080938100EC
:10079000809180008160809380008091B1008460AE
:1007A0008093B1008091B00081608093B00080910F
:1007B0007A00846080937A0080917A0082608093CE
:1007C0007A0080917A00816080937A0080917A002B
:1007D000806880937A001092C100E091A101F091AD
:1007E000A20182E08083E0919D01F0919E01108240
:1007F000E0919F01F091A0018FEC80831092A901FC
:10080000E091A501F091A60186E08083E091A3012B
:10081000F091A401808180618083E091A301F09137
:10082000A401808188608083E091A301F091A401FC
:10083000808180688083E091A301F091A401808190
:100840008F7D808319A281E388A38F8FCE014F967D
:100850000E94A002A2E1B1E028E231E08D919D91D9
:100860009927FC01E656FF4F6491FC01EA57FF4FC0
:1008700084918823A1F090E0880F991FFC01E8592A
:10088000FF4F45915491FC01EE58FF4F8591949193
:100890008FB7F894FA019081962B90838FBF2A1717
:1008A0003B07E1F6ECE9F0E02491E8E8F0E0849120
:1008B0008823C9F090E0880F991FFC01E859FF4F89
:1008C00045915491FC01EE58FF4FA591B4919FB70B
:1008D000F894FA0180812095822380838C91E22F05
:1008E000E823EC939FBF60ED77E080E090E00E940A
:1008F00032018FE00E94B5008C0180E10E94B500BA
:100900009801281B390BC9018F3F3FEF930769F00E
:100910000197B1F461E083E00E94DE0060E084E0D2
:100920000E94DE008FE491E015C060E083E00E9449
:10093000DE0061E084E00E94DE0082E691E00AC011
:1009400060E083E00E94DE0060E084E00E94DE0060
:1009500084E791E00E94B2028EE00E94B500019708
:1009600019F481E08093870180918701882329F120
:1009700081E10E94B5008C0182E10E94B5001092D5
:100980008601F801E81BF90BCF018F3FFFEF9F07AE
:1009900051F0019751F40E947C0282E00E94B50060
:1009A000892BD1F104C00E947C020E94C002809178
:1009B00086018823C9F21092870160E083E00E94DB
:1009C000DE0060E084E00E94DE0060E085E00E94DE
:1009D000DE0060E086E00E94DE0060E087E00E94CA
:1009E000DE0060E088E00E94DE0060E089E00E94B6
:1009F000DE0060E08AE00E94DE0060E08BE00E94A2
:100A0000DE0060E08CE00E94DE0060E08DE00E948D
:100A1000DE000E9472026DCF82E10E94B500019754
:100A200029F48FE791E00E94B202C1CF82E00E94D8
:100A3000B500019741F488E391E00E94B20281E0A1
:100A400080938601B4CF80E00E94B500892B09F421
:100A5000A4CF60E085E00E94DE0061E086E00E94B5
:100A6000DE0061E087E00E94DE0061E088E00E9435
:100A7000DE0061E08DE00E94DE008FCFE1E9F1E071
:100A80001382128288EE93E0A0E0B0E08483958325
:100A9000A683B78384E091E09183808385EC90E026
:100AA0009587848784EC90E09787868780EC90E038
:100AB000918B808B81EC90E0938B828B82EC90E029
:100AC000958B848B86EC90E0978B868B118E128EA3
:100AD000138E148E0895EE0FFF1F0590F491E02DF4
:100AE000099481E090E0F8940C947605F894FFCF97
:100AF0000000000003026C019A015002CB01A90121
:100B0000BD010300040005000600070008000900FD
:100B10000A000B000C000D000D0A00435252525205
:100B200052525252525252007373737373737373EF
:100B30007373737373737373737373737373005615
:100B40006572696E2076657273206C6520686175C8
:100B50007400566572696E2076657273206C65202C
:100B600062617300566572696E2073746F70004322
:060B70004C4C4C4C00004F
:00000001FF
