:100000000C9462000C948A000C948A000C948A0070
:100010000C948A000C948A000C948A000C948A0038
:100020000C948A000C948A000C948A000C948A0028
:100030000C948A000C948A000C948A000C948A0018
:100040000C943F030C948A000C94AF030C94890326
:100050000C948A000C948A000C948A000C948A00F8
:100060000C948A000C948A000000000024002700F1
:100070002A0000000000250028002B0000000000DE
:1000800023002600290004040404040404040202DA
:100090000202020203030303030301020408102007
:1000A0004080010204081020010204081020000012
:1000B0000008000201000003040700000000000027
:1000C0000000B00511241FBECFEFD8E0DEBFCDBFCA
:1000D00011E0A0E0B1E0E4EDFBE002C005900D927C
:1000E000A836B107D9F722E0A8E6B1E001C01D9219
:1000F000A131B207E1F710E0C2E6D0E004C02197D9
:10010000FE010E94DD05C136D107C9F70E94E10357
:100110000C94E8050C940000833081F028F48130C1
:1001200099F08230A1F008958730A9F08830B9F0B5
:100130008430D1F4809180008F7D03C08091800055
:100140008F7780938000089584B58F7702C084B53F
:100150008F7D84BD08958091B0008F7703C080911A
:10016000B0008F7D8093B0000895CF93DF93282F48
:1001700030E0F901E255FF4F8491F901E656FF4F57
:10018000D491F901EA57FF4FC491CC2391F081112A
:100190000E948C00EC2FF0E0EE0FFF1FE458FF4FA1
:1001A000A591B491EC91ED2381E090E021F480E001
:1001B00002C080E090E0DF91CF9108951F93CF932C
:1001C000DF93282F30E0F901E255FF4F8491F901C8
:1001D000E656FF4FD491F901EA57FF4FC491CC2363
:1001E000C1F0162F81110E948C00EC2FF0E0EE0F71
:1001F000FF1FEE58FF4FA591B4919FB7F8941111CE
:1002000004C08C91D095D82302C0EC91DE2BDC93F6
:100210009FBFDF91CF911F9108953FB7F8948091D0
:10022000700190917101A0917201B091730126B596
:10023000A89B05C02F3F19F00196A11DB11D3FBF1E
:10024000BA2FA92F982F8827820F911DA11DB11DAC
:10025000BC01CD0142E0660F771F881F991F4A95A8
:10026000D1F708958F929F92AF92BF92CF92DF9273
:10027000EF92FF926B017C010E940D014B015C012A
:10028000C114D104E104F104F1F00E940D01DC017C
:10029000CB0188199909AA09BB09883E9340A10599
:1002A000B10570F321E0C21AD108E108F10888EE27
:1002B000880E83E0981EA11CB11CC114D104E10476
:1002C000F10419F7DDCFFF90EF90DF90CF90BF9052
:1002D000AF909F908F900895CF92DF92EF92FF9210
:1002E0000F931F93CF93DF936C017A018B01C0E0D2
:1002F000D0E0CE15DF0581F0D8016D918D01D601DA
:10030000ED91FC910190F081E02DC6010995892BBA
:1003100011F02196EECF7E01C701DF91CF911F91A1
:100320000F91FF90EF90DF90CF900895089580E0B7
:1003300090E00895FC01538D448D252F30E0842FEB
:1003400090E0821B930B541710F0CF9608950197FD
:100350000895FC01918D828D981761F0828DDF01E7
:10036000A80FB11D5D968C91928D9F5F9F73928FA8
:1003700090E008958FEF9FEF0895FC01918D828D9D
:10038000981731F0828DE80FF11D858D90E008956A
:100390008FEF9FEF0895FC01918D228D892F90E0C2
:1003A000805C9F4F821B91098F739927089584E782
:1003B00091E00E94CB0121E0892B09F420E0822FFB
:1003C0000895FC01848DDF01A80FB11DA35ABF4F12
:1003D0002C91848D90E001968F739927848FA68944
:1003E000B7892C93A089B1898C91837080648C9398
:1003F000938D848D981306C00288F389E02D808147
:100400008F7D80830895EF92FF920F931F93CF9378
:10041000DF93EC0181E0888F9B8D8C8D981305C054
:10042000E889F989808185FD26C0F62E0B8D10E0C4
:100430000F5F1F4F0F731127E02E8C8DE8120CC039
:100440000FB607FCFACFE889F989808185FFF5CFDF
:10045000CE010E94E101F1CF8B8DFE01E80FF11D6D
:10046000E35AFF4FF0829FB7F8940B8FEA89FB891C
:10047000808180620AC09FB7F894EE89FF8960830B
:10048000E889F98980818370806480839FBF81E0DF
:1004900090E0DF91CF911F910F91FF90EF90089521
:1004A000CF93DF93EC01888D8823C9F0EA89FB891B
:1004B000808185FD05C0A889B9898C9186FD0FC012
:1004C0000FB607FCF5CF808185FFF2CFA889B989E7
:1004D0008C9185FFEDCFCE010E94E101E7CFDF9146
:1004E000CF91089580E090E0892B29F00E94D701F8
:1004F00081110C940000089560E085E00E94DE0008
:1005000060E086E00E94DE0064EF71E080E090E051
:100510000E94320161E08AE00E94DE0061E08CE02E
:100520000E94DE0064EF71E080E090E00E94320102
:1005300060E08AE00E94DE0060E08CE00C94DE0067
:1005400060E083E00E94DE0060E084E00E94DE0064
:1005500060E085E00E94DE0060E086E00E94DE0050
:1005600060E087E00E94DE0060E088E00E94DE003C
:1005700060E089E00E94DE0060E08AE00E94DE0028
:1005800060E08BE00E94DE0060E08CE00E94DE0014
:1005900060E08DE00C94DE00009769F0FC010190B2
:1005A0000020E9F73197AF01481B590BBC0184E7E4
:1005B00091E00C946C0180E090E00895CF93DF937C
:1005C0000E94CC02EC0188E291E00E94CC028C0FE8
:1005D0009D1FDF91CF91089581E10E94B500892B85
:1005E00009F04AC082E00E94B500892B09F044C09E
:1005F00083E10E94B500892B09F0089581E10E94F2
:10060000B500019721F48BE291E00C94DE0282E0C8
:100610000E94B500019741F483E691E00E94DE025A
:1006200081E080936901089583E10E94B5000197FC
:1006300021F481E080936801089580E00E94B50074
:10064000892B51F280E00E94B500892B29F261E0EC
:1006500085E00E94DE0060E086E00E94DE0061E04E
:1006600087E00E94DE0061E088E00E94DE0061E039
:100670008DE00E94DE00B0CF08950E94E3051F9236
:100680000F920FB60F9211242F933F938F939F9346
:10069000AF93BF9380916C0190916D01A0916E0119
:1006A000B0916F0130916B0123E0230F2D3720F4BF
:1006B0000196A11DB11D05C026E8230F0296A11DBC
:1006C000B11D20936B0180936C0190936D01A093F9
:1006D0006E01B0936F018091700190917101A091B2
:1006E0007201B09173010196A11DB11D809370013B
:1006F00090937101A0937201B0937301BF91AF9178
:100700009F918F913F912F910F900FBE0F901F904F
:1007100018951F920F920FB60F9211242F933F93AB
:100720004F935F936F937F938F939F93AF93BF93F9
:10073000EF93FF9384E791E00E94E101FF91EF9135
:10074000BF91AF919F918F917F916F915F914F91E9
:100750003F912F910F900FBE0F901F9018951F92F1
:100760000F920FB60F9211242F938F939F93EF93B5
:10077000FF93E0918401F09185018081E0918A01ED
:10078000F0918B0182FD12C0908180918D018F5F6D
:100790008F7320918E01821751F0E0918D01F0E06E
:1007A000EC58FE4F958F80938D0101C08081FF91A1
:1007B000EF919F918F912F910F900FBE0F901F90EF
:1007C0001895CF93DF93CDB7DEB7A1970FB6F89406
:1007D000DEBF0FBECDBF789484B5826084BD84B582
:1007E000816084BD85B5826085BD85B5816085BD2C
:1007F00080916E00816080936E00109281008091E4
:10080000810082608093810080918100816080936B
:100810008100809180008160809380008091B10090
:1008200084608093B1008091B00081608093B000BB
:1008300080917A00846080937A0080917A0082604F
:1008400080937A0080917A00816080937A00809111
:100850007A00806880937A001092C100E091840150
:10086000F091850182E08083E0918001F091810127
:100870001082E0918201F09183018FEC80831092CD
:100880008C01E0918801F091890186E08083E091FC
:100890008601F0918701808180618083E0918601EB
:1008A000F0918701808188608083E0918601F091DA
:1008B0008701808180688083E0918601F0918701C3
:1008C00080818F7D808319A281E388A38F8FCE01E1
:1008D0004F960E94CC02A2E1B1E028E231E08D9176
:1008E0009D919927FC01E656FF4F6491FC01EA5760
:1008F000FF4F84918823A1F090E0880F991FFC019D
:10090000E859FF4F45915491FC01EE58FF4F8591F6
:1009100094918FB7F894FA019081962B90838FBFB2
:100920002A173B07E1F6ECE9F0E02491E8E8F0E073
:1009300084918823C9F090E0880F991FFC01E85941
:10094000FF4F45915491FC01EE58FF4FA591B49192
:100950009FB7F894FA0180812095822380838C913F
:10096000E22FE823EC939FBF60ED77E080E090E01A
:100970000E9432018FE00E94B5008C0180E10E944C
:10098000B5009801281B390BC9018F3F3FEF930732
:1009900069F060E00197A9F483E00E94DE0061E065
:1009A00084E00E94DE0088E391E014C061E083E00F
:1009B0000E94DE0060E084E00E94DE008BE491E0B3
:1009C00009C083E00E94DE0060E084E00E94DE0057
:1009D0008DE591E00E94DE028EE00E94B500019755
:1009E00019F481E080936A0180916A01882309F4F7
:1009F0007FC081E10E94B5008C0182E10E94B500B8
:100A00001092690110926801F801E81BF90BCF01FF
:100A10008F3FFFEF9F0779F0019779F40E947C02E6
:100A200082E00E94B500892BB9F483E10E94B500F1
:100A3000892B61F011C00E947C020E94EC0280911F
:100A40006901882349F010926A0152C082E10E9434
:100A5000B500019709F051C080916801882321F207
:100A600061E089E00E94DE0061E08BE00E94DE0030
:100A700061E087E00E94DE0061E088E00E94DE0025
:100A800061E08DE00E94DE0068EE73E080E090E0BF
:100A90000E94320160E085E00E94DE0060E086E0B6
:100AA0000E94DE0060E089E00E94DE0060E08AE0F3
:100AB0000E94DE0060E08BE00E94DE0060E08CE0DF
:100AC0000E94DE008FE00E94B500892B09F0BBCFA9
:100AD00060E083E00E94DE0061E084E00E94DE00CE
:100AE0008FE00E94B500019769F70E94A002ABCF8A
:100AF0000E94A0020E9472023DCF82E00E94B500D7
:100B0000019721F481E08093690199CF83E10E94EC
:100B1000B500019721F481E08093680190CF80E0D7
:100B20000E94B500892B09F47BCF80E00E94B500BC
:100B3000892B09F475CF60E085E00E94DE0061E05A
:100B400086E00E94DE0061E087E00E94DE0061E056
:100B500088E00E94DE0061E08DE00E94DE0060CF50
:100B6000E4E7F1E01382128288EE93E0A0E0B0E0C7
:100B700084839583A683B78384E091E09183808307
:100B800085EC90E09587848784EC90E09787868752
:100B900080EC90E0918B808B81EC90E0938B828B4A
:100BA00082EC90E0958B848B86EC90E0978B868B23
:100BB000118E128E138E148E0895EE0FFF1F059066
:100BC000F491E02D099481E090E0F8940C94E8050C
:040BD000F894FFCFC7
:100BD4000000000003026C019A015002CB01A9013C
:100BE400BD01030004000500060007000800090019
:100BF4000A000B000C000D000D0A00435252525221
:100C04005252525252525200566572696E207665A3
:100C14007273206C65206861757400566572696E24
:100C24002076657273206C6520626173005665726C
:080C3400696E2073746F7000FB
:107E0000112484B714BE81FFF0D085E080938100F7
:107E100082E08093C00088E18093C10086E0809377
:107E2000C20080E18093C4008EE0C9D0259A86E02C
:107E300020E33CEF91E0309385002093840096BBD3
:107E4000B09BFECF1D9AA8958150A9F7CC24DD24C4
:107E500088248394B5E0AB2EA1E19A2EF3E0BF2EE7
:107E6000A2D0813461F49FD0082FAFD0023811F036
:107E7000013811F484E001C083E08DD089C08234E0
:107E800011F484E103C0853419F485E0A6D080C0E4
:107E9000853579F488D0E82EFF2485D0082F10E0AE
:107EA000102F00270E291F29000F111F8ED06801E7
:107EB0006FC0863521F484E090D080E0DECF843638
:107EC00009F040C070D06FD0082F6DD080E0C81688
:107ED00080E7D80618F4F601B7BEE895C0E0D1E017
:107EE00062D089930C17E1F7F0E0CF16F0E7DF06D8
:107EF00018F0F601B7BEE89568D007B600FCFDCFD4
:107F0000A601A0E0B1E02C9130E011968C91119780
:107F100090E0982F8827822B932B1296FA010C0160
:107F200087BEE89511244E5F5F4FF1E0A038BF0790
:107F300051F7F601A7BEE89507B600FCFDCF97BE46
:107F4000E89526C08437B1F42ED02DD0F82E2BD052
:107F50003CD0F601EF2C8F010F5F1F4F84911BD097
:107F6000EA94F801C1F70894C11CD11CFA94CF0C13
:107F7000D11C0EC0853739F428D08EE10CD085E9AC
:107F80000AD08FE07ACF813511F488E018D01DD067
:107F900080E101D065CF982F8091C00085FFFCCF94
:107FA0009093C60008958091C00087FFFCCF809118
:107FB000C00084FD01C0A8958091C6000895E0E648
:107FC000F0E098E1908380830895EDDF803219F02E
:107FD00088E0F5DFFFCF84E1DECF1F93182FE3DFCA
:107FE0001150E9F7F2DF1F91089580E0E8DFEE27F6
:047FF000FF270994CA
:027FFE00040479
:0400000300007E007B
:00000001FF
