:100000000C9461000C947E000C947E000C947E0095
:100010000C947E000C947E000C947E000C947E0068
:100020000C947E000C947E000C947E000C947E0058
:100030000C947E000C947E000C947E000C947E0048
:100040000C94F9010C947E000C947E000C947E00BC
:100050000C947E000C947E000C947E000C947E0028
:100060000C947E000C947E00000000002400270009
:100070002A0000000000250028002B0000000000DE
:1000800023002600290004040404040404040202DA
:100090000202020203030303030301020408102007
:1000A0004080010204081020010204081020000012
:1000B0000008000201000003040700000000000027
:1000C000000011241FBECFEFD8E0DEBFCDBF11E08E
:1000D000A0E0B1E0ECE7F7E002C005900D92A63198
:1000E000B107D9F721E0A6E1B1E001C01D92A2322B
:1000F000B207E1F70E9443020C94BC030C94000089
:10010000833081F028F4813099F08230A1F0089595
:100110008730A9F08830B9F08430D1F48091800024
:100120008F7D03C0809180008F7780938000089539
:1001300084B58F7702C084B58F7D84BD089580918A
:10014000B0008F7703C08091B0008F7D8093B000A6
:100150000895CF93DF93282F30E0F901E255FF4F48
:100160008491F901E656FF4FD491F901EA57FF4F08
:10017000C491CC2391F081110E948000EC2FF0E01B
:10018000EE0FFF1FE458FF4FA591B491EC91ED23C2
:1001900081E090E021F480E002C080E090E0DF9117
:1001A000CF9108951F93CF93DF93282F30E0F9016B
:1001B000E255FF4F8491F901E656FF4FD491F901C2
:1001C000EA57FF4FC491CC23C1F0162F81110E9432
:1001D0008000EC2FF0E0EE0FFF1FEE58FF4FA591CF
:1001E000B4919FB7F894111104C08C91D095D82385
:1001F00002C0EC91DE2BDC939FBFDF91CF911F916A
:1002000008953FB7F89480911E0190911F01A0912D
:100210002001B091210126B5A89B05C02F3F19F000
:100220000196A11DB11D3FBFBA2FA92F982F882776
:10023000820F911DA11DB11DBC01CD0142E0660FD1
:10024000771F881F991F4A95D1F708958F929F9223
:10025000AF92BF92CF92DF92EF92FF926B017C013F
:100260000E9401014B015C01C114D104E104F104BD
:10027000F1F00E940101DC01CB0188199909AA095A
:10028000BB09883E9340A105B10570F321E0C21A75
:10029000D108E108F10888EE880E83E0981EA11CC1
:1002A000B11CC114D104E104F10419F7DDCFFF90B2
:1002B000EF90DF90CF90BF90AF909F908F90089578
:1002C00081E10E94A900892B09F042C082E00E94CE
:1002D000A900892BE9F583E10E94A900892B09F087
:1002E000089581E10E94A900019789F182E00E94AE
:1002F000A900019721F481E080931701089583E11B
:100300000E94A900019721F481E0809316010895CD
:1003100080E00E94A900892B99F280E00E94A90048
:10032000892B71F261E085E00E94D20060E086E0F6
:100330000E94D20061E087E00E94D20061E088E084
:100340000E94D20061E08DE00E94D200B9CF0895F2
:10035000089560E085E00E94D20060E086E00E949F
:10036000D20064EF71E080E090E00E94260161E03D
:100370008AE00E94D20061E08CE00E94D20064EF2B
:1003800071E080E090E00E94260160E08AE00E9437
:10039000D20060E08CE00C94D20060E083E00E9428
:1003A000D20060E084E00E94D20060E085E00E941C
:1003B000D20060E086E00E94D20060E087E00E9408
:1003C000D20060E088E00E94D20060E089E00E94F4
:1003D000D20060E08AE00E94D20060E08BE00E94E0
:1003E000D20060E08CE00E94D20060E08DE00C94CE
:1003F000D2001F920F920FB60F9211242F933F93AA
:100400008F939F93AF93BF9380911A0190911B019B
:10041000A0911C01B0911D013091190123E0230F1F
:100420002D3720F40196A11DB11D05C026E8230F2C
:100430000296A11DB11D2093190180931A0190937A
:100440001B01A0931C01B0931D0180911E0190918E
:100450001F01A0912001B09121010196A11DB11DA4
:1004600080931E0190931F01A0932001B09321015E
:10047000BF91AF919F918F913F912F910F900FBEA0
:100480000F901F901895789484B5826084BD84B5D0
:10049000816084BD85B5826085BD85B5816085BD7F
:1004A00080916E00816080936E0010928100809137
:1004B00081008260809381008091810081608093BF
:1004C0008100809180008160809380008091B100E4
:1004D00084608093B1008091B00081608093B0000F
:1004E00080917A00846080937A0080917A008260A3
:1004F00080937A0080917A00816080937A00809165
:100500007A00806880937A001092C100A0E0B1E088
:1005100026E131E08D919D919927FC01E656FF4F30
:100520004491FC01EA57FF4F8491882399F090E0B1
:10053000880F991FFC01E859FF4FC591D491FC0128
:10054000EE58FF4F859194918FB7F894E881E42B92
:10055000E8838FBF2A173B07E9F6ECE9F0E0249126
:10056000E8E8F0E084918823C1F090E0880F991FBB
:10057000FC01E859FF4FC591D491FC01EE58FF4FA3
:10058000A591B4919FB7F8948881E22FE0958E23CE
:1005900088838C91E823EC939FBF60ED77E080E047
:1005A00090E00E94260100E010E08FE00E94A90088
:1005B000EC0180E10E94A9009E01281B390BC901B2
:1005C0008F3F3FEF930741F060E0019731F483E004
:1005D0000E94D20061E005C061E083E00E94D20089
:1005E00060E084E00E94D2008EE00E94A9000197A2
:1005F00019F481E08093180180911801882309F48F
:100600007FC081E10E94A900EC0182E10E94A90063
:1006100010921701109216019E01281B390BC90177
:100620008F3F3FEF930779F0019779F40E94A9017A
:1006300082E00E94A900892BB9F483E10E94A900FD
:10064000892B61F011C00E94A9010E946001809174
:100650001701882349F01092180152C082E10E94CC
:10066000A900019709F055C080911601882321F255
:1006700061E089E00E94D20061E08BE00E94D2003C
:1006800061E087E00E94D20061E088E00E94D20031
:1006900061E08DE00E94D20068EE73E080E090E0BF
:1006A0000E94260160E085E00E94D20060E086E0C2
:1006B0000E94D20060E089E00E94D20060E08AE0FF
:1006C0000E94D20060E08BE00E94D20060E08CE0EB
:1006D0000E94D2008FE00E94A900892B09F0BBCFB5
:1006E00060E083E00E94D20061E084E00E94D200DA
:1006F0008FE00E94A900019769F70E94CD01ABCF5E
:100700000E94CD010115110509F44FCF0E94000090
:100710004CCF82E00E94A900019721F481E08093F0
:10072000170195CF83E10E94A900019721F481E090
:10073000809316018CCF80E00E94A900892B09F4D8
:1007400077CF80E00E94A900892B09F471CF60E087
:1007500085E00E94D20061E086E00E94D20061E064
:1007600087E00E94D20061E088E00E94D20061E050
:0C0770008DE00E94D2005CCFF894FFCF17
:10077C0003000400050006000700080009000A0039
:06078C000B000C000D0043
:107E0000112484B714BE81FFF0D085E080938100F7
:107E100082E08093C00088E18093C10086E0809377
:107E2000C20080E18093C4008EE0C9D0259A86E02C
:107E300020E33CEF91E0309385002093840096BBD3
:107E4000B09BFECF1D9AA8958150A9F7CC24DD24C4
:107E500088248394B5E0AB2EA1E19A2EF3E0BF2EE7
:107E6000A2D0813461F49FD0082FAFD0023811F036
:107E7000013811F484E001C083E08DD089C08234E0
:107E800011F484E103C0853419F485E0A6D080C0E4
:107E9000853579F488D0E82EFF2485D0082F10E0AE
:107EA000102F00270E291F29000F111F8ED06801E7
:107EB0006FC0863521F484E090D080E0DECF843638
:107EC00009F040C070D06FD0082F6DD080E0C81688
:107ED00080E7D80618F4F601B7BEE895C0E0D1E017
:107EE00062D089930C17E1F7F0E0CF16F0E7DF06D8
:107EF00018F0F601B7BEE89568D007B600FCFDCFD4
:107F0000A601A0E0B1E02C9130E011968C91119780
:107F100090E0982F8827822B932B1296FA010C0160
:107F200087BEE89511244E5F5F4FF1E0A038BF0790
:107F300051F7F601A7BEE89507B600FCFDCF97BE46
:107F4000E89526C08437B1F42ED02DD0F82E2BD052
:107F50003CD0F601EF2C8F010F5F1F4F84911BD097
:107F6000EA94F801C1F70894C11CD11CFA94CF0C13
:107F7000D11C0EC0853739F428D08EE10CD085E9AC
:107F80000AD08FE07ACF813511F488E018D01DD067
:107F900080E101D065CF982F8091C00085FFFCCF94
:107FA0009093C60008958091C00087FFFCCF809118
:107FB000C00084FD01C0A8958091C6000895E0E648
:107FC000F0E098E1908380830895EDDF803219F02E
:107FD00088E0F5DFFFCF84E1DECF1F93182FE3DFCA
:107FE0001150E9F7F2DF1F91089580E0E8DFEE27F6
:047FF000FF270994CA
:027FFE00040479
:0400000300007E007B
:00000001FF
