:100000000C9462000C948A000C948A000C948A0070
:100010000C948A000C948A000C948A000C948A0038
:100020000C948A000C948A000C948A000C948A0028
:100030000C948A000C948A000C948A000C948A0018
:100040000C94A0020C948A000C9410030C94EA0205
:100050000C948A000C948A000C948A000C948A00F8
:100060000C948A000C948A000000000024002700F1
:100070002A0000000000250028002B0000000000DE
:1000800023002600290004040404040404040202DA
:100090000202020203030303030301020408102007
:1000A0004080010204081020010204081020000012
:1000B0000008000201000003040700000000000027
:1000C0000000230411241FBECFEFD8E0DEBFCDBF58
:1000D00011E0A0E0B1E0EAEBF8E002C005900D927B
:1000E000A235B107D9F721E0A2E5B1E001C01D9228
:1000F000A83FB207E1F710E0C2E6D0E004C02197C4
:10010000FE010E945004C136D107C9F70E94420384
:100110000C945B040C940000833081F028F481304F
:1001200099F08230A1F008958730A9F08830B9F0B5
:100130008430D1F4809180008F7D03C08091800055
:100140008F7780938000089584B58F7702C084B53F
:100150008F7D84BD08958091B0008F7703C080911A
:10016000B0008F7D8093B0000895CF93DF93282F48
:1001700030E0F901E255FF4F8491F901E656FF4F57
:10018000D491F901EA57FF4FC491CC2391F081112A
:100190000E948C00EC2FF0E0EE0FFF1FE458FF4FA1
:1001A000A591B491EC91ED2381E090E021F480E001
:1001B00002C080E090E0DF91CF9108951F93CF932C
:1001C000DF93282F30E0F901E255FF4F8491F901C8
:1001D000E656FF4FD491F901EA57FF4FC491CC2363
:1001E000C1F0162F81110E948C00EC2FF0E0EE0F71
:1001F000FF1FEE58FF4FA591B4919FB7F8941111CE
:1002000004C08C91D095D82302C0EC91DE2BDC93F6
:100210009FBFDF91CF911F9108953FB7F8948091D0
:10022000570190915801A0915901B0915A0126B5FA
:10023000A89B05C02F3F19F00196A11DB11D3FBF1E
:10024000BA2FA92F982F8827820F911DA11DB11DAC
:10025000BC01CD0142E0660F771F881F991F4A95A8
:10026000D1F708958F929F92AF92BF92CF92DF9273
:10027000EF92FF926B017C010E940D014B015C012A
:10028000C114D104E104F104F1F00E940D01DC017C
:10029000CB0188199909AA09BB09883E9340A10599
:1002A000B10570F321E0C21AD108E108F10888EE27
:1002B000880E83E0981EA11CB11CC114D104E10476
:1002C000F10419F7DDCFFF90EF90DF90CF90BF9052
:1002D000AF909F908F900895CF92DF92EF92FF9210
:1002E0000F931F93CF93DF936C017A018B01C0E0D2
:1002F000D0E0CE15DF0581F0D8016D918D01D601DA
:10030000ED91FC910190F081E02DC6010995892BBA
:1003100011F02196EECF7E01C701DF91CF911F91A1
:100320000F91FF90EF90DF90CF900895089580E0B7
:1003300090E00895FC01538D448D252F30E0842FEB
:1003400090E0821B930B541710F0CF9608950197FD
:100350000895FC01918D828D981761F0828DDF01E7
:10036000A80FB11D5D968C91928D9F5F9F73928FA8
:1003700090E008958FEF9FEF0895FC01918D828D9D
:10038000981731F0828DE80FF11D858D90E008956A
:100390008FEF9FEF0895FC01918D228D892F90E0C2
:1003A000805C9F4F821B91098F73992708958BE57D
:1003B00091E00E94CB0121E0892B09F420E0822FFB
:1003C0000895FC01848DDF01A80FB11DA35ABF4F12
:1003D0002C91848D90E001968F739927848FA68944
:1003E000B7892C93A089B1898C91837080648C9398
:1003F000938D848D981306C00288F389E02D808147
:100400008F7D80830895EF92FF920F931F93CF9378
:10041000DF93EC0181E0888F9B8D8C8D981305C054
:10042000E889F989808185FD26C0F62E0B8D10E0C4
:100430000F5F1F4F0F731127E02E8C8DE8120CC039
:100440000FB607FCFACFE889F989808185FFF5CFDF
:10045000CE010E94E101F1CF8B8DFE01E80FF11D6D
:10046000E35AFF4FF0829FB7F8940B8FEA89FB891C
:10047000808180620AC09FB7F894EE89FF8960830B
:10048000E889F98980818370806480839FBF81E0DF
:1004900090E0DF91CF911F910F91FF90EF90089521
:1004A000CF93DF93EC01888D8823C9F0EA89FB891B
:1004B000808185FD05C0A889B9898C9186FD0FC012
:1004C0000FB607FCF5CF808185FFF2CFA889B989E7
:1004D0008C9185FFEDCFCE010E94E101E7CFDF9146
:1004E000CF91089580E090E0892B29F00E94D701F8
:1004F00081110C9400000895CF93DF93009779F059
:10050000FC0101900020E9F73197AF01481B590B1E
:10051000BC018BE591E00E946C01EC0102C0C0E0DF
:10052000D0E042E050E06EE171E08BE591E00E94A6
:100530006C018C0F9D1FDF91CF9108950E9456048E
:100540001F920F920FB60F9211242F933F938F9308
:100550009F93AF93BF938091530190915401A091C9
:100560005501B09156013091520123E0230F2D37F0
:1005700020F40196A11DB11D05C026E8230F0296A7
:10058000A11DB11D209352018093530190935401FA
:10059000A0935501B0935601809157019091580155
:1005A000A0915901B0915A010196A11DB11D8093EE
:1005B000570190935801A0935901B0935A01BF91EC
:1005C000AF919F918F913F912F910F900FBE0F9000
:1005D0001F9018951F920F920FB60F9211242F9310
:1005E0003F934F935F936F937F938F939F93AF93BB
:1005F000BF93EF93FF938BE591E00E94E101FF91A0
:10060000EF91BF91AF919F918F917F916F915F918A
:100610004F913F912F910F900FBE0F901F90189503
:100620001F920F920FB60F9211242F938F939F93C7
:10063000EF93FF93E0916B01F0916C018081E09169
:100640007101F091720182FD12C09081809174015C
:100650008F5F8F7320917501821751F0E0917401C3
:10066000F0E0E55AFE4F958F8093740101C08081C0
:10067000FF91EF919F918F912F910F900FBE0F904F
:100680001F901895789484B5826084BD84B581608C
:1006900084BD85B5826085BD85B5816085BD80914D
:1006A0006E00816080936E001092810080918100C5
:1006B00082608093810080918100816080938100BD
:1006C000809180008160809380008091B10084607F
:1006D0008093B1008091B00081608093B0008091E0
:1006E0007A00846080937A0080917A00826080939F
:1006F0007A0080917A00816080937A0080917A00FC
:10070000806880937A001092C100E0916B01F091B3
:100710006C0182E08083E0916701F09168011082B2
:10072000E0916901F0916A018FEC8083109273016E
:10073000E0916F01F091700186E08083E0916D019E
:10074000F0916E01808180618083E0916D01F09174
:100750006E01808188608083E0916D01F0916E016F
:10076000808180688083E0916D01F0916E018081CD
:100770008F7D8083A2E1B1E02EE131E08D919D91EA
:100780009927FC01E656FF4F4491FC01EA57FF4FC1
:100790008491882399F090E0880F991FFC01E85913
:1007A000FF4FC591D491FC01EE58FF4F8591949174
:1007B0008FB7F894E881E42BE8838FBF2A173B07B3
:1007C000E9F660ED77E080E090E00E9432018FE092
:1007D0000E94B500EC0180E10E94B5009E01281B3B
:1007E000390BC9018F3F3FEF930769F00197B1F4CF
:1007F00061E082E00E94DE0060E083E00E94DE00B3
:1008000081E291E015C060E082E00E94DE0061E0DC
:1008100083E00E94DE0084E391E00AC060E082E0B1
:100820000E94DE0060E083E00E94DE0086E491E04A
:100830000E947C0268EE73E080E090E00E9432014A
:100840000E947202C4CFEBE5F1E01382128288EEBF
:1008500093E0A0E0B0E084839583A683B78384E02F
:1008600091E09183808385EC90E09587848784EC88
:1008700090E09787868780EC90E0918B808B81EC6D
:1008800090E0938B828B82EC90E0958B848B86EC4E
:1008900090E0978B868B118E128E138E148E089596
:1008A000EE0FFF1F0590F491E02D099481E090E098
:0A08B000F8940C945B04F894FFCF59
:1008BA000000000003026C019A015002CB01A90159
:1008CA00BD010200030004000500060007000D0A2E
:1008DA0000566572696E2076657273206C652068B1
:1008EA0061757400566572696E2076657273206C44
:1008FA00652062617300566572696E2073746F7049
:02090A000000EB
:00000001FF
