:100000000C9462000C948A000C948A000C948A0070
:100010000C948A000C948A000C948A000C948A0038
:100020000C948A000C948A000C948A000C948A0028
:100030000C948A000C948A000C948A000C948A0018
:100040000C9464020C948A000C94D4020C94AE02BA
:100050000C948A000C948A000C948A000C948A00F8
:100060000C948A000C948A000000000024002700F1
:100070002A0000000000250028002B0000000000DE
:1000800023002600290004040404040404040202DA
:100090000202020203030303030301020408102007
:1000A0004080010204081020010204081020000012
:1000B0000008000201000003040700000000000027
:1000C0000000600411241FBECFEFD8E0DEBFCDBF1B
:1000D00011E0A0E0B1E0E4E3F9E002C005900D9288
:1000E000AE35B107D9F722E0AEE5B1E001C01D920F
:1000F000A530B207E1F710E0C2E6D0E004C02197D6
:10010000FE010E948D04C136D107C9F70E94060383
:100110000C9498040C940000833081F028F4813012
:1001200099F08230A1F008958730A9F08830B9F0B5
:100130008430D1F4809180008F7D03C08091800055
:100140008F7780938000089584B58F7702C084B53F
:100150008F7D84BD08958091B0008F7703C080911A
:10016000B0008F7D8093B0000895CF93DF93282F48
:1001700030E0F901E255FF4F8491F901E656FF4F57
:10018000D491F901EA57FF4FC491CC2391F081112A
:100190000E948C00EC2FF0E0EE0FFF1FE458FF4FA1
:1001A000A591B491EC91ED2381E090E021F480E001
:1001B00002C080E090E0DF91CF9108951F93CF932C
:1001C000DF93282F30E0F901E255FF4F8491F901C8
:1001D000E656FF4FD491F901EA57FF4FC491CC2363
:1001E000C1F0162F81110E948C00EC2FF0E0EE0F71
:1001F000FF1FEE58FF4FA591B4919FB7F8941111CE
:1002000004C08C91D095D82302C0EC91DE2BDC93F6
:100210009FBFDF91CF911F9108953FB7F8948091D0
:10022000640190916501A0916601B091670126B5C6
:10023000A89B05C02F3F19F00196A11DB11D3FBF1E
:10024000BA2FA92F982F8827820F911DA11DB11DAC
:10025000BC01CD0142E0660F771F881F991F4A95A8
:10026000D1F70895CF92DF92EF92FF920F931F93F1
:10027000CF93DF936C017A018B01C0E0D0E0CE1503
:10028000DF0581F0D8016D918D01D601ED91FC91D2
:100290000190F081E02DC6010995892B11F021967E
:1002A000EECF7E01C701DF91CF911F910F91FF909B
:1002B000EF90DF90CF900895089580E090E008954A
:1002C000FC01538D448D252F30E0842F90E0821B5C
:1002D000930B541710F0CF96089501970895FC01E1
:1002E000918D828D981761F0828DDF01A80FB11D6D
:1002F0005D968C91928D9F5F9F73928F90E0089591
:100300008FEF9FEF0895FC01918D828D981731F04A
:10031000828DE80FF11D858D90E008958FEF9FEF9E
:100320000895FC01918D228D892F90E0805C9F4F74
:10033000821B91098F739927089588E691E00E94A6
:10034000910121E0892B09F420E0822F0895FC011E
:10035000848DDF01A80FB11DA35ABF4F2C91848D4E
:1003600090E001968F739927848FA689B7892C9383
:10037000A089B1898C91837080648C93938D848DD6
:10038000981306C00288F389E02D80818F7D8083D9
:100390000895EF92FF920F931F93CF93DF93EC0199
:1003A00081E0888F9B8D8C8D981305C0E889F98931
:1003B000808185FD26C0F62E0B8D10E00F5F1F4F4C
:1003C0000F731127E02E8C8DE8120CC00FB607FCBE
:1003D000FACFE889F989808185FFF5CFCE010E94A7
:1003E000A701F1CF8B8DFE01E80FF11DE35AFF4FFE
:1003F000F0829FB7F8940B8FEA89FB898081806235
:100400000AC09FB7F894EE89FF896083E889F9896B
:1004100080818370806480839FBF81E090E0DF9162
:10042000CF911F910F91FF90EF900895CF93DF939D
:10043000EC01888D8823C9F0EA89FB89808185FDDC
:1004400005C0A889B9898C9186FD0FC00FB607FC3D
:10045000F5CF808185FFF2CFA889B9898C9185FF7E
:10046000EDCFCE010E94A701E7CFDF91CF91089594
:1004700080E090E0892B29F00E949D0181110C946D
:1004800000000895009769F0FC0101900020E9F751
:100490003197AF01481B590BBC0188E691E00C94E1
:1004A000320180E090E00895CF93DF930E944202F2
:1004B000EC018EE191E00E9442028C0F9D1FDF91C2
:1004C000CF9108950E9493041F920F920FB60F923E
:1004D00011242F933F938F939F93AF93BF9380915A
:1004E000600190916101A0916201B091630130912E
:1004F0005F0123E0230F2D3720F40196A11DB11DCC
:1005000005C026E8230F0296A11DB11D20935F01AF
:100510008093600190936101A0936201B0936301A5
:100520008091640190916501A0916601B09167018D
:100530000196A11DB11D8093640190936501A09364
:100540006601B0936701BF91AF919F918F913F91E9
:100550002F910F900FBE0F901F9018951F920F9222
:100560000FB60F9211242F933F934F935F936F9386
:100570007F938F939F93AF93BF93EF93FF9388E6FF
:1005800091E00E94A701FF91EF91BF91AF919F91E0
:100590008F917F916F915F914F913F912F910F902C
:1005A0000FBE0F901F9018951F920F920FB60F92CB
:1005B00011242F938F939F93EF93FF93E0917801F2
:1005C000F09179018081E0917E01F0917F0182FDBF
:1005D00012C09081809181018F5F8F732091820181
:1005E000821751F0E0918101F0E0E859FE4F958FBC
:1005F0008093810101C08081FF91EF919F918F9144
:100600002F910F900FBE0F901F901895CF93DF93EF
:10061000CDB7DEB7A1970FB6F894DEBF0FBECDBF42
:10062000789484B5826084BD84B5816084BD85B5CD
:10063000826085BD85B5816085BD80916E008160D9
:1006400080936E001092810080918100826080937F
:100650008100809181008160809381008091800081
:100660008160809380008091B10084608093B100AC
:100670008091B00081608093B00080917A008460A6
:1006800080937A0080917A00826080937A008091D2
:100690007A00816080937A0080917A0080688093EC
:1006A0007A001092C100E0917801F091790182E026
:1006B0008083E0917401F09175011082E0917601E0
:1006C000F09177018FEC808310928001E0917C01A2
:1006D000F0917D0186E08083E0917A01F0917B01C9
:1006E000808180618083E0917A01F0917B0180813B
:1006F00088608083E0917A01F0917B01808180683D
:100700008083E0917A01F0917B0180818F7D8083ED
:1007100019A286E388A3CE0180960E944202A2E13C
:10072000B1E02EE131E08D919D919927FC01E656D3
:10073000FF4F6491FC01EA57FF4F84918823A1F099
:1007400090E0880F991FFC01E859FF4F45915491A3
:10075000FC01EE58FF4F859194918FB7F894FA0100
:100760009081962B90838FBF2A173B07E1F60E945A
:100770000D014B015C0180EDC82E87E0D82EE12CE5
:10078000F12C0E940D01DC01CB0188199909AA09FD
:10079000BB09883E9340A105B10598F3F1E0CF1A5B
:1007A000D108E108F10828EE820E23E0921EA11C78
:1007B000B11CC114D104E104F10419F78FE00E94C7
:1007C000B5008C0180E10E94B500F801E81BF90B2F
:1007D000CF018F3FFFEF9F0769F00197B1F461E010
:1007E00082E00E94DE0060E083E00E94DE0081E2A1
:1007F00091E015C060E082E00E94DE0061E083E0ED
:100800000E94DE0084E391E00AC060E082E00E9482
:10081000DE0060E083E00E94DE0086E491E00E945A
:1008200054028EE00E94B500019719F481E0809394
:100830005E0180915E01882309F43FC081E10E943E
:10084000B500182F82E10E94B500181B1130B1F4D9
:1008500060E084E00E94DE0061E085E00E94DE004E
:1008600061E086E00E94DE0061E087E00E94DE0039
:1008700082E10E94B500019759F7DBCF81E10E9428
:10088000B500892BB1F661E084E00E94DE0060E0F3
:1008900085E00E94DE0061E086E00E94DE0061E00B
:1008A00087E00E94DE0081E10E94B500019731F7E8
:1008B00081E591E00E945402BCCF0E9438027ECFB5
:1008C000E8E6F1E01382128288EE93E0A0E0B0E067
:1008D00084839583A683B78384E091E091838083AA
:1008E00085EC90E09587848784EC90E097878687F5
:1008F00080EC90E0918B808B81EC90E0938B828BED
:1009000082EC90E0958B848B86EC90E0978B868BC5
:10091000118E128E138E148E0895EE0FFF1F059008
:10092000F491E02D099481E090E0F8940C949804FF
:04093000F894FFCF69
:1009340000000000C90132016001160291016F013B
:1009440083010200030004000500060007000D0AED
:1009540000566572696E2076657273206C65206836
:1009640061757400566572696E2076657273206CC9
:10097400652062617300566572696E2073746F70CE
:0E09840000435252525252525252525252009C
:00000001FF
