:100000000C9462000C948A000C948A000C948A0070
:100010000C948A000C948A000C948A000C948A0038
:100020000C948A000C948A000C948A000C948A0028
:100030000C948A000C948A000C948A000C948A0018
:100040000C94FA020C948A000C946A030C944403F6
:100050000C948A000C948A000C948A000C948A00F8
:100060000C948A000C948A000000000024002700F1
:100070002A0000000000250028002B0000000000DE
:1000800023002600290004040404040404040202DA
:100090000202020203030303030301020408102007
:1000A0004080010204081020010204081020000012
:1000B0000008000201000003040700000000000027
:1000C0000000290511241FBECFEFD8E0DEBFCDBF51
:1000D00011E0A0E0B1E0E6ECFAE002C005900D927C
:1000E000A038B107D9F722E0A0E8B1E001C01D9225
:1000F000A832B207E1F710E0C2E6D0E004C02197D1
:10010000FE010E945605C136D107C9F70E949C0323
:100110000C9461050C940000833081F028F4813048
:1001200099F08230A1F008958730A9F08830B9F0B5
:100130008430D1F4809180008F7D03C08091800055
:100140008F7780938000089584B58F7702C084B53F
:100150008F7D84BD08958091B0008F7703C080911A
:10016000B0008F7D8093B0000895CF93DF93282F48
:1001700030E0F901E255FF4F8491F901E656FF4F57
:10018000D491F901EA57FF4FC491CC2391F081112A
:100190000E948C00EC2FF0E0EE0FFF1FE458FF4FA1
:1001A000A591B491EC91ED2381E090E021F480E001
:1001B00002C080E090E0DF91CF9108951F93CF932C
:1001C000DF93282F30E0F901E255FF4F8491F901C8
:1001D000E656FF4FD491F901EA57FF4FC491CC2363
:1001E000C1F0162F81110E948C00EC2FF0E0EE0F71
:1001F000FF1FEE58FF4FA591B4919FB7F8941111CE
:1002000004C08C91D095D82302C0EC91DE2BDC93F6
:100210009FBFDF91CF911F9108953FB7F8948091D0
:10022000870190918801A0918901B0918A0126B53A
:10023000A89B05C02F3F19F00196A11DB11D3FBF1E
:10024000BA2FA92F982F8827820F911DA11DB11DAC
:10025000BC01CD0142E0660F771F881F991F4A95A8
:10026000D1F708958F929F92AF92BF92CF92DF9273
:10027000EF92FF926B017C010E940D014B015C012A
:10028000C114D104E104F104F1F00E940D01DC017C
:10029000CB0188199909AA09BB09883E9340A10599
:1002A000B10570F321E0C21AD108E108F10888EE27
:1002B000880E83E0981EA11CB11CC114D104E10476
:1002C000F10419F7DDCFFF90EF90DF90CF90BF9052
:1002D000AF909F908F900895CF92DF92EF92FF9210
:1002E0000F931F93CF93DF936C017A018B01C0E0D2
:1002F000D0E0CE15DF0581F0D8016D918D01D601DA
:10030000ED91FC910190F081E02DC6010995892BBA
:1003100011F02196EECF7E01C701DF91CF911F91A1
:100320000F91FF90EF90DF90CF900895089580E0B7
:1003300090E00895FC01538D448D252F30E0842FEB
:1003400090E0821B930B541710F0CF9608950197FD
:100350000895FC01918D828D981761F0828DDF01E7
:10036000A80FB11D5D968C91928D9F5F9F73928FA8
:1003700090E008958FEF9FEF0895FC01918D828D9D
:10038000981731F0828DE80FF11D858D90E008956A
:100390008FEF9FEF0895FC01918D228D892F90E0C2
:1003A000805C9F4F821B91098F73992708958BE87A
:1003B00091E00E94CB0121E0892B09F420E0822FFB
:1003C0000895FC01848DDF01A80FB11DA35ABF4F12
:1003D0002C91848D90E001968F739927848FA68944
:1003E000B7892C93A089B1898C91837080648C9398
:1003F000938D848D981306C00288F389E02D808147
:100400008F7D80830895EF92FF920F931F93CF9378
:10041000DF93EC0181E0888F9B8D8C8D981305C054
:10042000E889F989808185FD26C0F62E0B8D10E0C4
:100430000F5F1F4F0F731127E02E8C8DE8120CC039
:100440000FB607FCFACFE889F989808185FFF5CFDF
:10045000CE010E94E101F1CF8B8DFE01E80FF11D6D
:10046000E35AFF4FF0829FB7F8940B8FEA89FB891C
:10047000808180620AC09FB7F894EE89FF8960830B
:10048000E889F98980818370806480839FBF81E0DF
:1004900090E0DF91CF911F910F91FF90EF90089521
:1004A000CF93DF93EC01888D8823C9F0EA89FB891B
:1004B000808185FD05C0A889B9898C9186FD0FC012
:1004C0000FB607FCF5CF808185FFF2CFA889B989E7
:1004D0008C9185FFEDCFCE010E94E101E7CFDF9146
:1004E000CF91089580E090E0892B29F00E94D701F8
:1004F00081110C940000089560E086E00E94DE0007
:1005000060E087E00E94DE0064EF71E080E090E050
:100510000E94320161E08AE00E94DE0061E08BE02F
:100520000E94DE0064EF71E080E090E00E94320102
:1005300060E08AE00E94DE0060E08BE00C94DE0068
:10054000009769F0FC0101900020E9F73197AF01B5
:10055000481B590BBC018BE891E00C946C0180E0C6
:1005600090E00895CF93DF930E94A002EC0182E215
:1005700091E00E94A0028C0F9D1FDF91CF91089502
:1005800081E10E94B500892B91F582E00E94B500BF
:10059000892B09F0089581E10E94B500019721F4AB
:1005A00085E291E00C94B20282E00E94B5000197CE
:1005B00041F482E391E00E94B20281E080938001E5
:1005C000089580E00E94B500892BD1F261E086E0B9
:1005D0000E94DE0060E087E00E94DE0061E088E0CB
:1005E0000E94DE0061E089E00E94DE00C9CF08952C
:1005F0000E945C051F920F920FB60F9211242F9349
:100600003F938F939F93AF93BF938091830190917A
:100610008401A0918501B09186013091820123E08F
:10062000230F2D3720F40196A11DB11D05C026E82A
:10063000230F0296A11DB11D209382018093830197
:1006400090938401A0938501B093860180918701E6
:1006500090918801A0918901B0918A010196A11D14
:10066000B11D8093870190938801A0938901B09375
:100670008A01BF91AF919F918F913F912F910F90E0
:100680000FBE0F901F9018951F920F920FB60F92EA
:1006900011242F933F934F935F936F937F938F9387
:1006A0009F93AF93BF93EF93FF938BE891E00E94EA
:1006B000E101FF91EF91BF91AF919F918F917F9158
:1006C0006F915F914F913F912F910F900FBE0F90BF
:1006D0001F9018951F920F920FB60F9211242F930F
:1006E0008F939F93EF93FF93E0919B01F0919C0177
:1006F0008081E091A101F091A20182FD12C0908160
:100700008091A4018F5F8F732091A501821751F012
:10071000E091A401F0E0E557FE4F958F8093A4018E
:1007200001C08081FF91EF919F918F912F910F9048
:100730000FBE0F901F901895CF93DF93CDB7DEB704
:10074000A1970FB6F894DEBF0FBECDBF789484B5E5
:10075000826084BD84B5816084BD85B5826085BDBD
:1007600085B5816085BD80916E00816080936E004B
:10077000109281008091810082608093810080913D
:1007800081008160809381008091800081608093EE
:1007900080008091B10084608093B1008091B000AE
:1007A00081608093B00080917A00846080937A00A9
:1007B00080917A00826080937A0080917A008160D3
:1007C00080937A0080917A00806880937A001092FA
:1007D000C100E0919B01F0919C0182E08083E09157
:1007E0009701F09198011082E0919901F0919A019E
:1007F0008FEC80831092A301E0919F01F091A00102
:1008000086E08083E0919D01F0919E01808180616E
:100810008083E0919D01F0919E01808188608083BA
:10082000E0919D01F0919E01808180688083E0913C
:100830009D01F0919E0180818F7D808319A288E3C4
:1008400088A3CE0180960E94A002A2E1B1E022E23C
:1008500031E08D919D919927FC01E656FF4F6491FF
:10086000FC01EA57FF4F84918823A1F090E0880FA4
:10087000991FFC01E859FF4F45915491FC01EE5836
:10088000FF4F859194918FB7F894FA019081962B40
:1008900090838FBF2A173B07E1F6ECE9F0E0249143
:1008A000E8E8F0E084918823C9F090E0880F991F70
:1008B000FC01E859FF4F45915491FC01EE58FF4F60
:1008C000A591B4919FB7F894FA0180812095822375
:1008D00080838C91E22FE823EC939FBF60ED77E05B
:1008E00080E090E00E9432018FE00E94B5008C0110
:1008F00080E10E94B5009801281B390BC9018F3F88
:100900003FEF930769F00197B1F461E084E00E9442
:10091000DE0060E085E00E94DE0089E491E015C021
:1009200060E084E00E94DE0061E085E00E94DE007D
:100930008CE591E00AC060E084E00E94DE0060E0A7
:1009400085E00E94DE008EE691E00E94B2028EE019
:100950000E94B500019719F481E080938101809194
:100960008101882329F181E10E94B5008C0182E197
:100970000E94B50010928001F801E81BF90BCF012D
:100980008F3FFFEF9F0751F0019751F40E947C02C7
:1009900082E00E94B500892B71F104C00E947C02A4
:1009A0000E94C002809180018823C9F210928101C7
:1009B00060E084E00E94DE0060E085E00E94DE00EE
:1009C00060E086E00E94DE0060E087E00E94DE00DA
:1009D00060E088E00E94DE0060E089E00E94DE00C6
:1009E00060E08AE00E94DE0060E08BE00E94DE00B2
:1009F0000E94720279CF82E10E94B500019729F42A
:100A000089E791E00E94B202CDCF82E00E94B5005A
:100A1000019741F482E391E00E94B20281E0809369
:100A20008001C0CF80E00E94B500892B09F4B0CFCF
:100A300060E086E00E94DE0061E087E00E94DE0068
:100A400061E088E00E94DE0061E089E00E94DE0053
:100A50009FCFEBE8F1E01382128288EE93E0A0E0F2
:100A6000B0E084839583A683B78384E091E091838B
:100A7000808385EC90E09587848784EC90E097876D
:100A8000868780EC90E0918B808B81EC90E0938B5B
:100A9000828B82EC90E0958B848B86EC90E0978B38
:100AA000868B118E128E138E148E0895EE0FFF1FFB
:100AB0000590F491E02D099481E090E0F8940C9475
:060AC0006105F894FFCF70
:100AC6000000000003026C019A015002CB01A9014B
:100AD600BD010400050006000700080009000A0021
:100AE6000B000D0A00435252525252525252525267
:100AF6005200737373737373737373737373737354
:100B0600737373737373737300566572696E2076AD
:100B1600657273206C65206861757400566572692C
:100B26006E2076657273206C65206261730056656F
:100B360072696E2073746F7000434C4C4C4C00000D
:107E0000112484B714BE81FFF0D085E080938100F7
:107E100082E08093C00088E18093C10086E0809377
:107E2000C20080E18093C4008EE0C9D0259A86E02C
:107E300020E33CEF91E0309385002093840096BBD3
:107E4000B09BFECF1D9AA8958150A9F7CC24DD24C4
:107E500088248394B5E0AB2EA1E19A2EF3E0BF2EE7
:107E6000A2D0813461F49FD0082FAFD0023811F036
:107E7000013811F484E001C083E08DD089C08234E0
:107E800011F484E103C0853419F485E0A6D080C0E4
:107E9000853579F488D0E82EFF2485D0082F10E0AE
:107EA000102F00270E291F29000F111F8ED06801E7
:107EB0006FC0863521F484E090D080E0DECF843638
:107EC00009F040C070D06FD0082F6DD080E0C81688
:107ED00080E7D80618F4F601B7BEE895C0E0D1E017
:107EE00062D089930C17E1F7F0E0CF16F0E7DF06D8
:107EF00018F0F601B7BEE89568D007B600FCFDCFD4
:107F0000A601A0E0B1E02C9130E011968C91119780
:107F100090E0982F8827822B932B1296FA010C0160
:107F200087BEE89511244E5F5F4FF1E0A038BF0790
:107F300051F7F601A7BEE89507B600FCFDCF97BE46
:107F4000E89526C08437B1F42ED02DD0F82E2BD052
:107F50003CD0F601EF2C8F010F5F1F4F84911BD097
:107F6000EA94F801C1F70894C11CD11CFA94CF0C13
:107F7000D11C0EC0853739F428D08EE10CD085E9AC
:107F80000AD08FE07ACF813511F488E018D01DD067
:107F900080E101D065CF982F8091C00085FFFCCF94
:107FA0009093C60008958091C00087FFFCCF809118
:107FB000C00084FD01C0A8958091C6000895E0E648
:107FC000F0E098E1908380830895EDDF803219F02E
:107FD00088E0F5DFFFCF84E1DECF1F93182FE3DFCA
:107FE0001150E9F7F2DF1F91089580E0E8DFEE27F6
:047FF000FF270994CA
:027FFE00040479
:0400000300007E007B
:00000001FF
