:100000000C9462000C9457030C9430030C948A00F7
:100010000C948A000C948A000C948A000C948A0038
:100020000C948A000C948A000C948A000C948A0028
:100030000C948A000C948A000C948A000C948A0018
:100040000C94E6020C948A000C94A4030C947E0396
:100050000C948A000C948A000C948A000C948A00F8
:100060000C948A000C948A000000000024002700F1
:100070002A0000000000250028002B0000000000DE
:1000800023002600290004040404040404040202DA
:100090000202020203030303030301020408102007
:1000A0004080010204081020010204081020000012
:1000B0000008000201000003040700000000000027
:1000C00000002B0511241FBECFEFD8E0DEBFCDBF4F
:1000D00011E0A0E0B1E0EAECFAE002C005900D9278
:1000E000A636B107D9F722E0A6E6B1E001C01D921D
:1000F000AE30B207E1F710E0C2E6D0E004C02197CD
:10010000FE010E945805C136D107C9F70E94D603E7
:100110000C9463050C940000833081F028F4813046
:1001200099F08230A1F008958730A9F08830B9F0B5
:100130008430D1F4809180008F7D03C08091800055
:100140008F7780938000089584B58F7702C084B53F
:100150008F7D84BD08958091B0008F7703C080911A
:10016000B0008F7D8093B0000895CF93DF93282F48
:1001700030E0F901E255FF4F8491F901E656FF4F57
:10018000D491F901EA57FF4FC491CC2391F081112A
:100190000E948C00EC2FF0E0EE0FFF1FE458FF4FA1
:1001A000A591B491EC91ED2381E090E021F480E001
:1001B00002C080E090E0DF91CF9108951F93CF932C
:1001C000DF93282F30E0F901E255FF4F8491F901C8
:1001D000E656FF4FD491F901EA57FF4FC491CC2363
:1001E000C1F0162F81110E948C00EC2FF0E0EE0F71
:1001F000FF1FEE58FF4FA591B4919FB7F8941111CE
:1002000004C08C91D095D82302C0EC91DE2BDC93F6
:100210009FBFDF91CF911F9108953FB7F8948091D0
:100220006D0190916E01A0916F01B091700126B5A2
:10023000A89B05C02F3F19F00196A11DB11D3FBF1E
:10024000BA2FA92F982F8827820F911DA11DB11DAC
:10025000BC01CD0142E0660F771F881F991F4A95A8
:10026000D1F708958F929F92AF92BF92CF92DF9273
:10027000EF92FF926B017C010E940D014B015C012A
:10028000C114D104E104F104F1F00E940D01DC017C
:10029000CB0188199909AA09BB09883E9340A10599
:1002A000B10570F321E0C21AD108E108F10888EE27
:1002B000880E83E0981EA11CB11CC114D104E10476
:1002C000F10419F7DDCFFF90EF90DF90CF90BF9052
:1002D000AF909F908F90089581E08093660108957C
:1002E0000895CF92DF92EF92FF920F931F93CF93D7
:1002F000DF936C017A018B01C0E0D0E0CE15DF0501
:1003000081F0D8016D918D01D601ED91FC910190A4
:10031000F081E02DC6010995892B11F02196EECFD1
:100320007E01C701DF91CF911F910F91FF90EF9058
:10033000DF90CF900895089580E090E00895FC014B
:10034000538D448D252F30E0842F90E0821B930B3A
:10035000541710F0CF96089501970895FC01918DE0
:10036000828D981761F0828DDF01A80FB11D5D9617
:100370008C91928D9F5F9F73928F90E008958FEF85
:100380009FEF0895FC01918D828D981731F0828D39
:10039000E80FF11D858D90E008958FEF9FEF089590
:1003A000FC01918D228D892F90E0805C9F4F821BF4
:1003B00091098F739927089581E791E00E94D001F8
:1003C00021E0892B09F420E0822F0895FC01848D1F
:1003D000DF01A80FB11DA35ABF4F2C91848D90E06F
:1003E00001968F739927848FA689B7892C93A0894A
:1003F000B1898C91837080648C93938D848D9813D4
:1004000006C00288F389E02D80818F7D8083089566
:10041000EF92FF920F931F93CF93DF93EC0181E054
:10042000888F9B8D8C8D981305C0E889F989808110
:1004300085FD26C0F62E0B8D10E00F5F1F4F0F734A
:100440001127E02E8C8DE8120CC00FB607FCFACFF6
:10045000E889F989808185FFF5CFCE010E94E60108
:10046000F1CF8B8DFE01E80FF11DE35AFF4FF082B3
:100470009FB7F8940B8FEA89FB89808180620AC05C
:100480009FB7F894EE89FF896083E889F9898081B4
:100490008370806480839FBF81E090E0DF91CF9183
:1004A0001F910F91FF90EF900895CF93DF93EC0190
:1004B000888D8823C9F0EA89FB89808185FD05C084
:1004C000A889B9898C9186FD0FC00FB607FCF5CFBE
:1004D000808185FFF2CFA889B9898C9185FFEDCF06
:1004E000CE010E94E601E7CFDF91CF91089580E031
:1004F00090E0892B29F00E94DC0181110C9400000E
:10050000089560E086E00E94DE0060E087E00E94DF
:10051000DE0064EF71E080E090E00E94320161E073
:100520008AE00E94DE0061E08BE00E94DE0064EF62
:1005300071E080E090E00E94320160E08AE00E9479
:10054000DE0060E08BE00C94DE00009769F0FC01B7
:1005500001900020E9F73197AF01481B590BBC010E
:1005600081E791E00C94710180E090E00895CF93D1
:10057000DF930E94A502EC0186E291E00E94A502B1
:100580008C0F9D1FDF91CF91089581E10E94B500EE
:10059000892BC9F461E086E00E94DE0060E087E01C
:1005A0000E94DE0061E088E00E94DE0061E089E0F8
:1005B0000E94DE0081E10E94B500019731F789E2D7
:1005C00091E00C94B70208950E945E051F920F926D
:1005D0000FB60F9211242F933F938F939F93AF9356
:1005E000BF938091690190916A01A0916B01B091D4
:1005F0006C013091680123E0230F2D3720F4019620
:10060000A11DB11D05C026E8230F0296A11DB11D35
:10061000209368018093690190936A01A0936B0114
:10062000B0936C0180916D0190916E01A0916F016A
:10063000B09170010196A11DB11D80936D01909341
:100640006E01A0936F01B0937001BF91AF919F9124
:100650008F913F912F910F900FBE0F901F90189583
:100660001F920F920FB60F9211242F933F934F9327
:100670005F936F937F938F939F93AF93BF93EF930A
:10068000FF93E0910201F09103010995FF91EF9131
:10069000BF91AF919F918F917F916F915F914F919A
:1006A0003F912F910F900FBE0F901F9018951F92A2
:1006B0000F920FB60F9211242F933F934F935F9396
:1006C0006F937F938F939F93AF93BF93EF93FF931A
:1006D000E0910001F09101010995FF91EF91BF9127
:1006E000AF919F918F917F916F915F914F913F91CA
:1006F0002F910F900FBE0F901F9018951F920F9281
:100700000FB60F9211242F933F934F935F936F93E4
:100710007F938F939F93AF93BF93EF93FF9381E763
:1007200091E00E94E601FF91EF91BF91AF919F91FF
:100730008F917F916F915F914F913F912F910F908A
:100740000FBE0F901F9018951F920F920FB60F9229
:1007500011242F938F939F93EF93FF93E091810147
:10076000F09182018081E0918701F091880182FD02
:1007700012C0908180918A018F5F8F7320918B01CD
:10078000821751F0E0918A01F0E0EF58FE4F958F0B
:1007900080938A0101C08081FF91EF919F918F9199
:1007A0002F910F900FBE0F901F901895CF93DF934E
:1007B000CDB7DEB7A1970FB6F894DEBF0FBECDBFA1
:1007C000789484B5826084BD84B5816084BD85B52C
:1007D000826085BD85B5816085BD80916E00816038
:1007E00080936E00109281008091810082608093DE
:1007F00081008091810081608093810080918000E0
:100800008160809380008091B10084608093B1000A
:100810008091B00081608093B00080917A00846004
:1008200080937A0080917A00826080937A00809130
:100830007A00816080937A0080917A00806880934A
:100840007A001092C100E0918101F091820182E072
:100850008083E0917D01F0917E011082E0917F0123
:10086000F09180018FEC808310928901E0918501E5
:10087000F091860186E08083E0918301F09184010C
:10088000808180618083E0918301F0918401808187
:1008900088608083E0918301F09184018081806889
:1008A0008083E0918301F091840180818F7D80833A
:1008B00019A288E388A3CE0180960E94A502A6E132
:1008C000B1E026E231E08D919D919927FC01E65639
:1008D000FF4F6491FC01EA57FF4F84918823A1F0F8
:1008E00090E0880F991FFC01E859FF4F4591549102
:1008F000FC01EE58FF4F859194918FB7F894FA015F
:100900009081962B90838FBF2A173B07E1F6ECE985
:10091000F0E02491E8E8F0E084918823C9F090E0C9
:10092000880F991FFC01E859FF4F45915491FC0134
:10093000EE58FF4FA591B4919FB7F894FA018081CA
:10094000322F309583238083EC91E22BEC939FBF71
:100950008CE691E090930101809300018091690001
:100960008C7F826080936900E89A60ED77E080E098
:1009700090E00E9432018FE00E94B5008C0180E17E
:100980000E94B5009801281B390BC9018F3F3FEF2A
:10099000930769F00197B1F461E084E00E94DE0002
:1009A00060E085E00E94DE0086E391E015C060E033
:1009B00084E00E94DE0061E085E00E94DE0089E4C0
:1009C00091E00AC060E084E00E94DE0060E085E023
:1009D0000E94DE008BE591E00E94B7028EE00E944B
:1009E000B500019719F481E0809367018091670158
:1009F000882371F181E10E94B5008C0182E10E949F
:100A0000B500F801E81BF90BCF018F3FFFEF9F07FF
:100A1000D1F00197D1F40E94810260E086E00E944B
:100A2000DE0061E087E00E94DE0061E088E00E9475
:100A3000DE0061E089E00E94DE0082E10E94B500F4
:100A4000019759F7D3CF0E9481020E94C502CECFF1
:100A50000E94770290CFE1E7F1E01382128288EEE4
:100A600093E0A0E0B0E084839583A683B78388E019
:100A700091E09183808385EC90E09587848784EC76
:100A800090E09787868780EC90E0918B808B81EC5B
:100A900090E0938B828B82EC90E0958B848B86EC3C
:100AA00090E0978B868B118E128E138E148E089584
:100AB000EE0FFF1F0590F491E02D099481E090E086
:0A0AC000F8940C946305F894FFCF3E
:100ACA007001700100000000080271019F015502C7
:100ADA00D001AE01C20104000500060007000800AB
:100AEA0009000A000B000D0A004352525252525298
:100AFA00525252525200566572696E20766572736E
:100B0A00206C65206861757400566572696E20767E
:100B1A00657273206C652062617300566572696E36
:060B2A002073746F7000DF
:00000001FF
